{
  "contractName": "Locations",
  "abi": [
    {
      "inputs": [],
      "payable": false,
      "stateMutability": "nonpayable",
      "type": "constructor"
    },
    {
      "anonymous": false,
      "inputs": [
        {
          "indexed": false,
          "internalType": "string",
          "name": "name",
          "type": "string"
        }
      ],
      "name": "LocationCreated",
      "type": "event"
    },
    {
      "constant": true,
      "inputs": [],
      "name": "locationCount",
      "outputs": [
        {
          "internalType": "uint256",
          "name": "",
          "type": "uint256"
        }
      ],
      "payable": false,
      "stateMutability": "view",
      "type": "function"
    },
    {
      "constant": true,
      "inputs": [
        {
          "internalType": "uint256",
          "name": "",
          "type": "uint256"
        }
      ],
      "name": "locations",
      "outputs": [
        {
          "internalType": "string",
          "name": "name",
          "type": "string"
        }
      ],
      "payable": false,
      "stateMutability": "view",
      "type": "function"
    },
    {
      "constant": false,
      "inputs": [
        {
          "internalType": "string",
          "name": "_name",
          "type": "string"
        }
      ],
      "name": "createLocation",
      "outputs": [],
      "payable": false,
      "stateMutability": "nonpayable",
      "type": "function"
    }
  ],
  "bytecode": "0x60806040526000805534801561001457600080fd5b5060408051808201909152600b81526a21b432b73730b496102a2760a91b6020820152610049906001600160e01b036100b316565b60408051808201909152600981526811195b1a1a4b08111360ba1b602082015261007b906001600160e01b036100b316565b60408051808201909152600a81526909aeadac4c2d258409a960b31b60208201526100ae906001600160e01b036100b316565b610223565b600080546001908101808355604080516020808201835286825292855292825290922081518051929391926100eb9284920190610188565b505060408051602080825284518183015284517fd5d3e8c3a95c8f5b3f87fb94766915f90d1f49e9fce0b8c4b3287eed10d1e295945085938392908301919085019080838360005b8381101561014b578181015183820152602001610133565b50505050905090810190601f1680156101785780820380516001836020036101000a031916815260200191505b509250505060405180910390a150565b828054600181600116156101000203166002900490600052602060002090601f016020900481019282601f106101c957805160ff19168380011785556101f6565b828001600101855582156101f6579182015b828111156101f65782518255916020019190600101906101db565b50610202929150610206565b5090565b61022091905b80821115610202576000815560010161020c565b90565b6103e1806102326000396000f3fe608060405234801561001057600080fd5b50600436106100415760003560e01c80638870325414610046578063b9e0db3514610060578063d54d66b0146100f2575b600080fd5b61004e61019a565b60408051918252519081900360200190f35b61007d6004803603602081101561007657600080fd5b50356101a0565b6040805160208082528351818301528351919283929083019185019080838360005b838110156100b757818101518382015260200161009f565b50505050905090810190601f1680156100e45780820380516001836020036101000a031916815260200191505b509250505060405180910390f35b6101986004803603602081101561010857600080fd5b81019060208101813564010000000081111561012357600080fd5b82018360208201111561013557600080fd5b8035906020019184600183028401116401000000008311171561015757600080fd5b91908080601f01602080910402602001604051908101604052809392919081815260200183838082843760009201919091525092955061023c945050505050565b005b60005481565b60016020818152600092835260409283902080548451600294821615610100026000190190911693909304601f81018390048302840183019094528383529283918301828280156102325780601f1061020757610100808354040283529160200191610232565b820191906000526020600020905b81548152906001019060200180831161021557829003601f168201915b5050505050905081565b600080546001908101808355604080516020808201835286825292855292825290922081518051929391926102749284920190610311565b505060408051602080825284518183015284517fd5d3e8c3a95c8f5b3f87fb94766915f90d1f49e9fce0b8c4b3287eed10d1e295945085938392908301919085019080838360005b838110156102d45781810151838201526020016102bc565b50505050905090810190601f1680156103015780820380516001836020036101000a031916815260200191505b509250505060405180910390a150565b828054600181600116156101000203166002900490600052602060002090601f016020900481019282601f1061035257805160ff191683800117855561037f565b8280016001018555821561037f579182015b8281111561037f578251825591602001919060010190610364565b5061038b92915061038f565b5090565b6103a991905b8082111561038b5760008155600101610395565b9056fea265627a7a72315820d15bb9032ebd7a7071f515f7d177b202bf1691d1c5b0207d013a10959bf4257564736f6c63430005100032",
  "source": "pragma solidity >=0.4.21 <0.7.0;\n\ncontract Locations {\n    uint public locationCount = 0;\n\n    struct Location {\n        string name;\n    }\n\n    mapping(uint => Location) public locations;\n\n    constructor() public {\n        createLocation(\"Chennai, TN\");\n        createLocation(\"Delhi, DL\");\n        createLocation(\"Mumbai, MH\");\n    }\n\n    event LocationCreated(\n        string name\n    );\n\n    function createLocation(string memory _name) public {\n        locationCount++;\n        locations[locationCount] = Location(_name);\n        emit LocationCreated(_name);\n    }\n}",
  "sourcePath": "D:/Projects/Javascript/TODO Teamname's Vaccine Blockchain/contracts/Locations.sol",
  "compiler": {
    "name": "solc",
    "version": "0.5.16+commit.9c3226ce.Emscripten.clang"
  },
  "schemaVersion": "3.4.0",
  "updatedAt": "2021-05-01T21:11:05.668Z",
  "networkType": "ethereum",
  "devdoc": {
    "methods": {}
  },
  "userdoc": {
    "methods": {}
  }
}