{
  "contractName": "VaccineDistribution",
  "abi": [
    {
      "inputs": [],
      "payable": false,
      "stateMutability": "nonpayable",
      "type": "constructor"
    },
    {
      "anonymous": false,
      "inputs": [
        {
          "indexed": false,
          "internalType": "string",
          "name": "name",
          "type": "string"
        },
        {
          "indexed": false,
          "internalType": "string",
          "name": "aadhar",
          "type": "string"
        },
        {
          "indexed": false,
          "internalType": "string",
          "name": "timestamp",
          "type": "string"
        }
      ],
      "name": "CertCreated",
      "type": "event"
    },
    {
      "anonymous": false,
      "inputs": [
        {
          "indexed": false,
          "internalType": "string",
          "name": "barcode",
          "type": "string"
        },
        {
          "indexed": false,
          "internalType": "string",
          "name": "name",
          "type": "string"
        },
        {
          "indexed": false,
          "internalType": "string",
          "name": "manufacturer",
          "type": "string"
        },
        {
          "indexed": false,
          "internalType": "string",
          "name": "locale",
          "type": "string"
        },
        {
          "indexed": false,
          "internalType": "int256",
          "name": "temp",
          "type": "int256"
        }
      ],
      "name": "VaccineCreated",
      "type": "event"
    },
    {
      "anonymous": false,
      "inputs": [
        {
          "indexed": false,
          "internalType": "string",
          "name": "barcode",
          "type": "string"
        },
        {
          "indexed": false,
          "internalType": "string",
          "name": "name",
          "type": "string"
        },
        {
          "indexed": false,
          "internalType": "string",
          "name": "vaccineLocation",
          "type": "string"
        },
        {
          "indexed": false,
          "internalType": "int256",
          "name": "temp",
          "type": "int256"
        }
      ],
      "name": "VaccineReceived",
      "type": "event"
    },
    {
      "payable": true,
      "stateMutability": "payable",
      "type": "fallback"
    },
    {
      "constant": true,
      "inputs": [],
      "name": "certCount",
      "outputs": [
        {
          "internalType": "uint256",
          "name": "",
          "type": "uint256"
        }
      ],
      "payable": false,
      "stateMutability": "view",
      "type": "function"
    },
    {
      "constant": true,
      "inputs": [
        {
          "internalType": "uint256",
          "name": "",
          "type": "uint256"
        }
      ],
      "name": "certs",
      "outputs": [
        {
          "internalType": "string",
          "name": "name",
          "type": "string"
        },
        {
          "internalType": "string",
          "name": "aadhar",
          "type": "string"
        },
        {
          "internalType": "string",
          "name": "timestamp",
          "type": "string"
        },
        {
          "internalType": "string",
          "name": "barcode",
          "type": "string"
        },
        {
          "internalType": "string",
          "name": "vacname",
          "type": "string"
        }
      ],
      "payable": false,
      "stateMutability": "view",
      "type": "function"
    },
    {
      "constant": true,
      "inputs": [],
      "name": "vaccineCount",
      "outputs": [
        {
          "internalType": "uint256",
          "name": "",
          "type": "uint256"
        }
      ],
      "payable": false,
      "stateMutability": "view",
      "type": "function"
    },
    {
      "constant": true,
      "inputs": [
        {
          "internalType": "uint256",
          "name": "",
          "type": "uint256"
        }
      ],
      "name": "vaccines",
      "outputs": [
        {
          "internalType": "string",
          "name": "barcode",
          "type": "string"
        },
        {
          "internalType": "string",
          "name": "name",
          "type": "string"
        },
        {
          "internalType": "string",
          "name": "manufacturer",
          "type": "string"
        },
        {
          "internalType": "string",
          "name": "locale",
          "type": "string"
        },
        {
          "internalType": "int256",
          "name": "temp",
          "type": "int256"
        }
      ],
      "payable": false,
      "stateMutability": "view",
      "type": "function"
    },
    {
      "constant": false,
      "inputs": [
        {
          "internalType": "string",
          "name": "_barcode",
          "type": "string"
        },
        {
          "internalType": "string",
          "name": "_name",
          "type": "string"
        },
        {
          "internalType": "string",
          "name": "_manufacturer",
          "type": "string"
        },
        {
          "internalType": "string",
          "name": "_locale",
          "type": "string"
        },
        {
          "internalType": "int256",
          "name": "_temp",
          "type": "int256"
        }
      ],
      "name": "createVaccine",
      "outputs": [],
      "payable": false,
      "stateMutability": "nonpayable",
      "type": "function"
    },
    {
      "constant": false,
      "inputs": [
        {
          "internalType": "uint256",
          "name": "_id",
          "type": "uint256"
        },
        {
          "internalType": "string",
          "name": "name",
          "type": "string"
        },
        {
          "internalType": "string",
          "name": "aadhar",
          "type": "string"
        },
        {
          "internalType": "string",
          "name": "timestamp",
          "type": "string"
        },
        {
          "internalType": "string",
          "name": "vacname",
          "type": "string"
        }
      ],
      "name": "receiveVaccine",
      "outputs": [],
      "payable": false,
      "stateMutability": "nonpayable",
      "type": "function"
    }
  ],
  "bytecode": "0x60806040526000805560006001553480156200001a57600080fd5b50620000ca6040518060400160405280600881526020016753464646514a393360c01b8152506040518060400160405280600a81526020016910dbdd9a5cda1a595b1960b21b8152506040518060400160405280601881526020017f536572756d20496e73746974757465204f6620496e64696100000000000000008152506040518060400160405280600981526020016844656c68692c20574160b81b8152506009196200033f60201b60201c565b620001686040518060400160405280600881526020016712911111910ccccd60c21b8152506040518060400160405280600781526020016621b7bb30bc34b760c91b8152506040518060400160405280600e81526020016d084d0c2e4c2e84084d2dee8cac6d60931b8152506040518060400160405280600b81526020016a4368656e6e61692c20574160a81b81525060006200033f60201b60201c565b62000208604051806040016040528060088152602001670888ca68c8a6466760c31b81525060405180604001604052806007815260200166537075746e696b60c81b8152506040518060400160405280600e81526020016d50616e616365612042696f74656360901b8152506040518060400160405280600d81526020016c4879646572616261642c20574160981b81525060056200033f60201b60201c565b620002a26001604051806040016040528060078152602001664b696e7368756b60c81b815250604051806040016040528060088152602001670626466686a6c6e760c31b8152506040518060400160405280600b81526020016a313231323231333432343160a81b8152506040518060400160405280600a81526020016910dbdd9a5cda1a595b1960b21b815250620005e060201b60201c565b6200033960026040518060400160405280600481526020016315195cdd60e21b8152506040518060400160405280600c81526020016b189919991999189a18999a1960a11b8152506040518060400160405280600a8152602001693939393939393939393960b01b8152506040518060400160405280600781526020016621b7bb30bc34b760c91b815250620005e060201b60201c565b620008fd565b600080546001018082556040805160a08101825288815260208082018990528183018890526060820187905260808201869052928452600283529220825180519192620003929284929091019062000829565b506020828101518051620003ad926001850192019062000829565b5060408201518051620003cb91600284019160209091019062000829565b5060608201518051620003e991600384019160209091019062000829565b50608082015181600401559050507f66607d108c079185600fab1416a7bee6a88f2318884dea9ae4d20e356db367508585858585604051808060200180602001806020018060200186815260200185810385528a818151815260200191508051906020019080838360005b838110156200046e57818101518382015260200162000454565b50505050905090810190601f1680156200049c5780820380516001836020036101000a031916815260200191505b5085810384528951815289516020918201918b019080838360005b83811015620004d1578181015183820152602001620004b7565b50505050905090810190601f168015620004ff5780820380516001836020036101000a031916815260200191505b5085810383528851815288516020918201918a019080838360005b83811015620005345781810151838201526020016200051a565b50505050905090810190601f168015620005625780820380516001836020036101000a031916815260200191505b50858103825287518152875160209182019189019080838360005b83811015620005975781810151838201526020016200057d565b50505050905090810190601f168015620005c55780820380516001836020036101000a031916815260200191505b50995050505050505050505060405180910390a15050505050565b620005ea620008ae565b84815260208082018590526040808301859052608083018490526001805481019055600088815260038352208251805184936200062c92849291019062000829565b50602082810151805162000647926001850192019062000829565b50604082015180516200066591600284019160209091019062000829565b50606082015180516200068391600384019160209091019062000829565b5060808201518051620006a191600484019160209091019062000829565b509050507fc73d12327f023ab901ecfb487ac3ae704d1a643eff9ef73b462908e2a429937381600001518260200151836040015160405180806020018060200180602001848103845287818151815260200191508051906020019080838360005b838110156200071c57818101518382015260200162000702565b50505050905090810190601f1680156200074a5780820380516001836020036101000a031916815260200191505b50848103835286518152865160209182019188019080838360005b838110156200077f57818101518382015260200162000765565b50505050905090810190601f168015620007ad5780820380516001836020036101000a031916815260200191505b50848103825285518152855160209182019187019080838360005b83811015620007e2578181015183820152602001620007c8565b50505050905090810190601f168015620008105780820380516001836020036101000a031916815260200191505b50965050505050505060405180910390a1505050505050565b828054600181600116156101000203166002900490600052602060002090601f016020900481019282601f106200086c57805160ff19168380011785556200089c565b828001600101855582156200089c579182015b828111156200089c5782518255916020019190600101906200087f565b50620008aa929150620008dd565b5090565b6040518060a0016040528060608152602001606081526020016060815260200160608152602001606081525090565b620008fa91905b80821115620008aa5760008155600101620008e4565b90565b61144f806200090d6000396000f3fe6080604052600436106100555760003560e01c80632b33fd9114610057578063300e88bd14610299578063646750d614610474578063d4e207a2146106ae578063dcb7b1b7146106d5578063f9944ae2146106ea575b005b34801561006357600080fd5b50610055600480360360a081101561007a57600080fd5b810190602081018135600160201b81111561009457600080fd5b8201836020820111156100a657600080fd5b803590602001918460018302840111600160201b831117156100c757600080fd5b91908080601f0160208091040260200160405190810160405280939291908181526020018383808284376000920191909152509295949360208101935035915050600160201b81111561011957600080fd5b82018360208201111561012b57600080fd5b803590602001918460018302840111600160201b8311171561014c57600080fd5b91908080601f0160208091040260200160405190810160405280939291908181526020018383808284376000920191909152509295949360208101935035915050600160201b81111561019e57600080fd5b8201836020820111156101b057600080fd5b803590602001918460018302840111600160201b831117156101d157600080fd5b91908080601f0160208091040260200160405190810160405280939291908181526020018383808284376000920191909152509295949360208101935035915050600160201b81111561022357600080fd5b82018360208201111561023557600080fd5b803590602001918460018302840111600160201b8311171561025657600080fd5b91908080601f0160208091040260200160405190810160405280939291908181526020018383808284376000920191909152509295505091359250610931915050565b3480156102a557600080fd5b506102c3600480360360208110156102bc57600080fd5b5035610bbe565b604051808060200180602001806020018060200186815260200185810385528a818151815260200191508051906020019080838360005b838110156103125781810151838201526020016102fa565b50505050905090810190601f16801561033f5780820380516001836020036101000a031916815260200191505b5085810384528951815289516020918201918b019080838360005b8381101561037257818101518382015260200161035a565b50505050905090810190601f16801561039f5780820380516001836020036101000a031916815260200191505b5085810383528851815288516020918201918a019080838360005b838110156103d25781810151838201526020016103ba565b50505050905090810190601f1680156103ff5780820380516001836020036101000a031916815260200191505b50858103825287518152875160209182019189019080838360005b8381101561043257818101518382015260200161041a565b50505050905090810190601f16801561045f5780820380516001836020036101000a031916815260200191505b50995050505050505050505060405180910390f35b34801561048057600080fd5b5061049e6004803603602081101561049757600080fd5b5035610e1f565b60405180806020018060200180602001806020018060200186810386528b818151815260200191508051906020019080838360005b838110156104eb5781810151838201526020016104d3565b50505050905090810190601f1680156105185780820380516001836020036101000a031916815260200191505b5086810385528a5181528a516020918201918c019080838360005b8381101561054b578181015183820152602001610533565b50505050905090810190601f1680156105785780820380516001836020036101000a031916815260200191505b5086810384528951815289516020918201918b019080838360005b838110156105ab578181015183820152602001610593565b50505050905090810190601f1680156105d85780820380516001836020036101000a031916815260200191505b5086810383528851815288516020918201918a019080838360005b8381101561060b5781810151838201526020016105f3565b50505050905090810190601f1680156106385780820380516001836020036101000a031916815260200191505b50868103825287518152875160209182019189019080838360005b8381101561066b578181015183820152602001610653565b50505050905090810190601f1680156106985780820380516001836020036101000a031916815260200191505b509a505050505050505050505060405180910390f35b3480156106ba57600080fd5b506106c3611110565b60408051918252519081900360200190f35b3480156106e157600080fd5b506106c3611116565b3480156106f657600080fd5b50610055600480360360a081101561070d57600080fd5b81359190810190604081016020820135600160201b81111561072e57600080fd5b82018360208201111561074057600080fd5b803590602001918460018302840111600160201b8311171561076157600080fd5b91908080601f0160208091040260200160405190810160405280939291908181526020018383808284376000920191909152509295949360208101935035915050600160201b8111156107b357600080fd5b8201836020820111156107c557600080fd5b803590602001918460018302840111600160201b831117156107e657600080fd5b91908080601f0160208091040260200160405190810160405280939291908181526020018383808284376000920191909152509295949360208101935035915050600160201b81111561083857600080fd5b82018360208201111561084a57600080fd5b803590602001918460018302840111600160201b8311171561086b57600080fd5b91908080601f0160208091040260200160405190810160405280939291908181526020018383808284376000920191909152509295949360208101935035915050600160201b8111156108bd57600080fd5b8201836020820111156108cf57600080fd5b803590602001918460018302840111600160201b831117156108f057600080fd5b91908080601f01602080910402602001604051908101604052809392919081815260200183838082843760009201919091525092955061111c945050505050565b600080546001018082556040805160a0810182528881526020808201899052818301889052606082018790526080820186905292845260028352922082518051919261098292849290910190611350565b50602082810151805161099b9260018501920190611350565b50604082015180516109b7916002840191602090910190611350565b50606082015180516109d3916003840191602090910190611350565b50608082015181600401559050507f66607d108c079185600fab1416a7bee6a88f2318884dea9ae4d20e356db367508585858585604051808060200180602001806020018060200186815260200185810385528a818151815260200191508051906020019080838360005b83811015610a56578181015183820152602001610a3e565b50505050905090810190601f168015610a835780820380516001836020036101000a031916815260200191505b5085810384528951815289516020918201918b019080838360005b83811015610ab6578181015183820152602001610a9e565b50505050905090810190601f168015610ae35780820380516001836020036101000a031916815260200191505b5085810383528851815288516020918201918a019080838360005b83811015610b16578181015183820152602001610afe565b50505050905090810190601f168015610b435780820380516001836020036101000a031916815260200191505b50858103825287518152875160209182019189019080838360005b83811015610b76578181015183820152602001610b5e565b50505050905090810190601f168015610ba35780820380516001836020036101000a031916815260200191505b50995050505050505050505060405180910390a15050505050565b600260208181526000928352604092839020805484516001821615610100026000190190911693909304601f8101839004830284018301909452838352928391830182828015610c4f5780601f10610c2457610100808354040283529160200191610c4f565b820191906000526020600020905b815481529060010190602001808311610c3257829003601f168201915b505050505090806001018054600181600116156101000203166002900480601f016020809104026020016040519081016040528092919081815260200182805460018160011615610100020316600290048015610ced5780601f10610cc257610100808354040283529160200191610ced565b820191906000526020600020905b815481529060010190602001808311610cd057829003601f168201915b50505060028085018054604080516020601f6000196101006001871615020190941695909504928301859004850281018501909152818152959695945090925090830182828015610d7f5780601f10610d5457610100808354040283529160200191610d7f565b820191906000526020600020905b815481529060010190602001808311610d6257829003601f168201915b5050505060038301805460408051602060026001851615610100026000190190941693909304601f8101849004840282018401909252818152949594935090830182828015610e0f5780601f10610de457610100808354040283529160200191610e0f565b820191906000526020600020905b815481529060010190602001808311610df257829003601f168201915b5050505050908060040154905085565b60036020908152600091825260409182902080548351601f60026000196101006001861615020190931692909204918201849004840281018401909452808452909291839190830182828015610eb65780601f10610e8b57610100808354040283529160200191610eb6565b820191906000526020600020905b815481529060010190602001808311610e9957829003601f168201915b505050505090806001018054600181600116156101000203166002900480601f016020809104026020016040519081016040528092919081815260200182805460018160011615610100020316600290048015610f545780601f10610f2957610100808354040283529160200191610f54565b820191906000526020600020905b815481529060010190602001808311610f3757829003601f168201915b50505060028085018054604080516020601f6000196101006001871615020190941695909504928301859004850281018501909152818152959695945090925090830182828015610fe65780601f10610fbb57610100808354040283529160200191610fe6565b820191906000526020600020905b815481529060010190602001808311610fc957829003601f168201915b5050505060038301805460408051602060026001851615610100026000190190941693909304601f81018490048402820184019092528181529495949350908301828280156110765780601f1061104b57610100808354040283529160200191611076565b820191906000526020600020905b81548152906001019060200180831161105957829003601f168201915b5050505060048301805460408051602060026001851615610100026000190190941693909304601f81018490048402820184019092528181529495949350908301828280156111065780601f106110db57610100808354040283529160200191611106565b820191906000526020600020905b8154815290600101906020018083116110e957829003601f168201915b5050505050905085565b60015481565b60005481565b6111246113ce565b8481526020808201859052604080830185905260808301849052600180548101905560008881526003835220825180518493611164928492910190611350565b50602082810151805161117d9260018501920190611350565b5060408201518051611199916002840191602090910190611350565b50606082015180516111b5916003840191602090910190611350565b50608082015180516111d1916004840191602090910190611350565b509050507fc73d12327f023ab901ecfb487ac3ae704d1a643eff9ef73b462908e2a429937381600001518260200151836040015160405180806020018060200180602001848103845287818151815260200191508051906020019080838360005b8381101561124a578181015183820152602001611232565b50505050905090810190601f1680156112775780820380516001836020036101000a031916815260200191505b50848103835286518152865160209182019188019080838360005b838110156112aa578181015183820152602001611292565b50505050905090810190601f1680156112d75780820380516001836020036101000a031916815260200191505b50848103825285518152855160209182019187019080838360005b8381101561130a5781810151838201526020016112f2565b50505050905090810190601f1680156113375780820380516001836020036101000a031916815260200191505b50965050505050505060405180910390a1505050505050565b828054600181600116156101000203166002900490600052602060002090601f016020900481019282601f1061139157805160ff19168380011785556113be565b828001600101855582156113be579182015b828111156113be5782518255916020019190600101906113a3565b506113ca9291506113fd565b5090565b6040518060a0016040528060608152602001606081526020016060815260200160608152602001606081525090565b61141791905b808211156113ca5760008155600101611403565b9056fea265627a7a72315820af7cf07273773bbcae7858e21d562486b9958acfe660c1b8bbd52b94cb0756c064736f6c63430005100032",
  "source": "pragma solidity >=0.4.21 <0.7.0;\n\ncontract VaccineDistribution {\n    uint public vaccineCount = 0;\n    uint public certCount = 0;\n\n    struct Vaccine {\n        string barcode;\n        string name;\n        string manufacturer;\n        string locale;\n        int temp;\n    }\n    struct Cert {\n        string name;\n        string aadhar;\n        string timestamp;\n        string barcode;\n        string vacname;\n    }\n\n    mapping(uint => Vaccine) public vaccines;\n    mapping(uint => Cert) public certs;\n\n    event CertCreated (\n        string name,\n        string aadhar,\n        string timestamp\n    );\n\n    event VaccineCreated(\n        string barcode,\n        string name,\n        string manufacturer,\n        string locale,\n        int temp\n    );\n\n    event VaccineReceived(\n        string barcode,\n        string name,\n        string vaccineLocation,\n        int temp\n    );\n    \n\n    constructor() public {\n        createVaccine(\"SFFFQJ93\", \"Covishield\", \"Serum Institute Of India\", \"Delhi, WA\", -10);\n        createVaccine(\"JDDFD334\", \"Covaxin\", \"Bharat Biotech\", \"Chennai, WA\", 0);\n        createVaccine(\"DFSFE238\", \"Sputnik\", \"Panacea Biotec\", \"Hyderabad, WA\", 5);\n        receiveVaccine(1, \"Kinshuk\", \"12345678\", \"12122134241\", \"Covishield\");\n        receiveVaccine(2, \"Test\", \"123232141342\", \"9999999999\", \"Covaxin\");\n    }\n\n    function createVaccine(string memory _barcode, string memory _name, string memory _manufacturer,\n    string memory _locale, int  _temp) public {\n        vaccineCount++;\n        vaccines[vaccineCount] = Vaccine(_barcode, _name, _manufacturer, _locale, _temp);\n        emit VaccineCreated(_barcode, _name, _manufacturer, _locale, _temp);\n    }\n\n    function receiveVaccine(uint _id, string memory name, string memory aadhar, string memory timestamp, string memory vacname) public {\n        Cert memory _cert;\n        _cert.name = name;\n        _cert.aadhar = aadhar;\n        _cert.timestamp = timestamp;\n        _cert.vacname = vacname;\n        certCount++;\n        certs[_id] = _cert;\n        emit CertCreated(_cert.name, _cert.aadhar, _cert.timestamp);\n    }\n    function() external payable {}\n}",
  "sourcePath": "D:/Projects/Javascript/TODO Teamname's Vaccine Blockchain/contracts/VaccineDistribution.sol",
  "compiler": {
    "name": "solc",
    "version": "0.5.16+commit.9c3226ce.Emscripten.clang"
  },
  "schemaVersion": "3.4.0",
  "updatedAt": "2021-05-01T16:42:46.601Z",
  "networkType": "ethereum",
  "devdoc": {
    "methods": {}
  },
  "userdoc": {
    "methods": {}
  }
}