{
  "contractName": "VaccineDistribution",
  "abi": [
    {
      "inputs": [],
      "payable": false,
      "stateMutability": "nonpayable",
      "type": "constructor"
    },
    {
      "anonymous": false,
      "inputs": [
        {
          "indexed": false,
          "internalType": "string",
          "name": "barcode",
          "type": "string"
        },
        {
          "indexed": false,
          "internalType": "string",
          "name": "name",
          "type": "string"
        },
        {
          "indexed": false,
          "internalType": "string",
          "name": "manufacturer",
          "type": "string"
        },
        {
          "indexed": false,
          "internalType": "string",
          "name": "locale",
          "type": "string"
        },
        {
          "indexed": false,
          "internalType": "int256",
          "name": "temp",
          "type": "int256"
        }
      ],
      "name": "VaccineCreated",
      "type": "event"
    },
    {
      "anonymous": false,
      "inputs": [
        {
          "indexed": false,
          "internalType": "string",
          "name": "barcode",
          "type": "string"
        },
        {
          "indexed": false,
          "internalType": "string",
          "name": "name",
          "type": "string"
        },
        {
          "indexed": false,
          "internalType": "string",
          "name": "vaccineLocation",
          "type": "string"
        },
        {
          "indexed": false,
          "internalType": "int256",
          "name": "temp",
          "type": "int256"
        }
      ],
      "name": "VaccineReceived",
      "type": "event"
    },
    {
      "payable": true,
      "stateMutability": "payable",
      "type": "fallback"
    },
    {
      "constant": true,
      "inputs": [],
      "name": "vaccinatedPeople",
      "outputs": [
        {
          "internalType": "uint256",
          "name": "",
          "type": "uint256"
        }
      ],
      "payable": false,
      "stateMutability": "view",
      "type": "function"
    },
    {
      "constant": true,
      "inputs": [],
      "name": "vaccineCount",
      "outputs": [
        {
          "internalType": "uint256",
          "name": "",
          "type": "uint256"
        }
      ],
      "payable": false,
      "stateMutability": "view",
      "type": "function"
    },
    {
      "constant": true,
      "inputs": [
        {
          "internalType": "uint256",
          "name": "",
          "type": "uint256"
        }
      ],
      "name": "vaccines",
      "outputs": [
        {
          "internalType": "string",
          "name": "barcode",
          "type": "string"
        },
        {
          "internalType": "string",
          "name": "name",
          "type": "string"
        },
        {
          "internalType": "string",
          "name": "manufacturer",
          "type": "string"
        },
        {
          "internalType": "string",
          "name": "locale",
          "type": "string"
        },
        {
          "internalType": "int256",
          "name": "temp",
          "type": "int256"
        }
      ],
      "payable": false,
      "stateMutability": "view",
      "type": "function"
    },
    {
      "constant": false,
      "inputs": [
        {
          "internalType": "string",
          "name": "_barcode",
          "type": "string"
        },
        {
          "internalType": "string",
          "name": "_name",
          "type": "string"
        },
        {
          "internalType": "string",
          "name": "_manufacturer",
          "type": "string"
        },
        {
          "internalType": "string",
          "name": "_locale",
          "type": "string"
        },
        {
          "internalType": "int256",
          "name": "_temp",
          "type": "int256"
        }
      ],
      "name": "createVaccine",
      "outputs": [],
      "payable": false,
      "stateMutability": "nonpayable",
      "type": "function"
    },
    {
      "constant": false,
      "inputs": [
        {
          "internalType": "uint256",
          "name": "_id",
          "type": "uint256"
        },
        {
          "internalType": "string",
          "name": "_vaccineLocation",
          "type": "string"
        },
        {
          "internalType": "int256",
          "name": "_temp",
          "type": "int256"
        }
      ],
      "name": "receiveVaccine",
      "outputs": [],
      "payable": false,
      "stateMutability": "nonpayable",
      "type": "function"
    }
  ],
  "bytecode": "0x60806040526000805560006001553480156200001a57600080fd5b50620000ca6040518060400160405280600881526020016753464646514a393360c01b8152506040518060400160405280600a81526020016910dbdd9a5cda1a595b1960b21b8152506040518060400160405280601881526020017f536572756d20496e73746974757465204f6620496e64696100000000000000008152506040518060400160405280600981526020016844656c68692c20574160b81b8152506009196200020e60201b60201c565b620001686040518060400160405280600881526020016712911111910ccccd60c21b8152506040518060400160405280600781526020016621b7bb30bc34b760c91b8152506040518060400160405280600e81526020016d084d0c2e4c2e84084d2dee8cac6d60931b8152506040518060400160405280600b81526020016a4368656e6e61692c20574160a81b81525060006200020e60201b60201c565b62000208604051806040016040528060088152602001670888ca68c8a6466760c31b81525060405180604001604052806007815260200166537075746e696b60c81b8152506040518060400160405280600e81526020016d50616e616365612042696f74656360901b8152506040518060400160405280600d81526020016c4879646572616261642c20574160981b81525060056200020e60201b60201c565b62000554565b600080546001018082556040805160a081018252888152602080820189905281830188905260608201879052608082018690529284526002835292208251805191926200026192849290910190620004af565b5060208281015180516200027c9260018501920190620004af565b50604082015180516200029a916002840191602090910190620004af565b5060608201518051620002b8916003840191602090910190620004af565b50608082015181600401559050507f66607d108c079185600fab1416a7bee6a88f2318884dea9ae4d20e356db367508585858585604051808060200180602001806020018060200186815260200185810385528a818151815260200191508051906020019080838360005b838110156200033d57818101518382015260200162000323565b50505050905090810190601f1680156200036b5780820380516001836020036101000a031916815260200191505b5085810384528951815289516020918201918b019080838360005b83811015620003a057818101518382015260200162000386565b50505050905090810190601f168015620003ce5780820380516001836020036101000a031916815260200191505b5085810383528851815288516020918201918a019080838360005b8381101562000403578181015183820152602001620003e9565b50505050905090810190601f168015620004315780820380516001836020036101000a031916815260200191505b50858103825287518152875160209182019189019080838360005b83811015620004665781810151838201526020016200044c565b50505050905090810190601f168015620004945780820380516001836020036101000a031916815260200191505b50995050505050505050505060405180910390a15050505050565b828054600181600116156101000203166002900490600052602060002090601f016020900481019282601f10620004f257805160ff191683800117855562000522565b8280016001018555821562000522579182015b828111156200052257825182559160200191906001019062000505565b506200053092915062000534565b5090565b6200055191905b808211156200053057600081556001016200053b565b90565b610ff380620005646000396000f3fe60806040526004361061004a5760003560e01c8063084fcf2e1461004c5780632b33fd9114610106578063300e88bd1461034857806356e20bd714610523578063dcb7b1b71461054a575b005b34801561005857600080fd5b5061004a6004803603606081101561006f57600080fd5b81359190810190604081016020820135600160201b81111561009057600080fd5b8201836020820111156100a257600080fd5b803590602001918460018302840111600160201b831117156100c357600080fd5b91908080601f016020809104026020016040519081016040528093929190818152602001838380828437600092019190915250929550509135925061055f915050565b34801561011257600080fd5b5061004a600480360360a081101561012957600080fd5b810190602081018135600160201b81111561014357600080fd5b82018360208201111561015557600080fd5b803590602001918460018302840111600160201b8311171561017657600080fd5b91908080601f0160208091040260200160405190810160405280939291908181526020018383808284376000920191909152509295949360208101935035915050600160201b8111156101c857600080fd5b8201836020820111156101da57600080fd5b803590602001918460018302840111600160201b831117156101fb57600080fd5b91908080601f0160208091040260200160405190810160405280939291908181526020018383808284376000920191909152509295949360208101935035915050600160201b81111561024d57600080fd5b82018360208201111561025f57600080fd5b803590602001918460018302840111600160201b8311171561028057600080fd5b91908080601f0160208091040260200160405190810160405280939291908181526020018383808284376000920191909152509295949360208101935035915050600160201b8111156102d257600080fd5b8201836020820111156102e457600080fd5b803590602001918460018302840111600160201b8311171561030557600080fd5b91908080601f01602080910402602001604051908101604052809392919081815260200183838082843760009201919091525092955050913592506109fa915050565b34801561035457600080fd5b506103726004803603602081101561036b57600080fd5b5035610c87565b604051808060200180602001806020018060200186815260200185810385528a818151815260200191508051906020019080838360005b838110156103c15781810151838201526020016103a9565b50505050905090810190601f1680156103ee5780820380516001836020036101000a031916815260200191505b5085810384528951815289516020918201918b019080838360005b83811015610421578181015183820152602001610409565b50505050905090810190601f16801561044e5780820380516001836020036101000a031916815260200191505b5085810383528851815288516020918201918a019080838360005b83811015610481578181015183820152602001610469565b50505050905090810190601f1680156104ae5780820380516001836020036101000a031916815260200191505b50858103825287518152875160209182019189019080838360005b838110156104e15781810151838201526020016104c9565b50505050905090810190601f16801561050e5780820380516001836020036101000a031916815260200191505b50995050505050505050505060405180910390f35b34801561052f57600080fd5b50610538610ee8565b60408051918252519081900360200190f35b34801561055657600080fd5b50610538610eee565b610567610ef4565b6000848152600260208181526040928390208351815460c0601f60001961010060018516150201909216959095049081018490049093028101840190945260a084018281529092849284918401828280156106035780601f106105d857610100808354040283529160200191610603565b820191906000526020600020905b8154815290600101906020018083116105e657829003601f168201915b50505050508152602001600182018054600181600116156101000203166002900480601f0160208091040260200160405190810160405280929190818152602001828054600181600116156101000203166002900480156106a55780601f1061067a576101008083540402835291602001916106a5565b820191906000526020600020905b81548152906001019060200180831161068857829003601f168201915b5050509183525050600282810180546040805160206001841615610100026000190190931694909404601f810183900483028501830190915280845293810193908301828280156107375780601f1061070c57610100808354040283529160200191610737565b820191906000526020600020905b81548152906001019060200180831161071a57829003601f168201915b505050918352505060038201805460408051602060026001851615610100026000190190941693909304601f81018490048402820184019092528181529382019392918301828280156107cb5780601f106107a0576101008083540402835291602001916107cb565b820191906000526020600020905b8154815290600101906020018083116107ae57829003601f168201915b505050918352505060049190910154602091820152608082018490526060820185905260008681526002825260409020825180519394508493919261081592849290910190610f23565b50602082810151805161082e9260018501920190610f23565b506040820151805161084a916002840191602090910190610f23565b5060608201518051610866916003840191602090910190610f23565b5060809182015160049091015560018054810190558151602080840151604080516060810188905285815284519581019590955283517fcb01df06dd9db442f4d5969572275a4894bd07e37942272cc35330d68833861495929389938993909283928381019284019160a08501918a019080838360005b838110156108f55781810151838201526020016108dd565b50505050905090810190601f1680156109225780820380516001836020036101000a031916815260200191505b50848103835287518152875160209182019189019080838360005b8381101561095557818101518382015260200161093d565b50505050905090810190601f1680156109825780820380516001836020036101000a031916815260200191505b50848103825286518152865160209182019188019080838360005b838110156109b557818101518382015260200161099d565b50505050905090810190601f1680156109e25780820380516001836020036101000a031916815260200191505b5097505050505050505060405180910390a150505050565b600080546001018082556040805160a08101825288815260208082018990528183018890526060820187905260808201869052928452600283529220825180519192610a4b92849290910190610f23565b506020828101518051610a649260018501920190610f23565b5060408201518051610a80916002840191602090910190610f23565b5060608201518051610a9c916003840191602090910190610f23565b50608082015181600401559050507f66607d108c079185600fab1416a7bee6a88f2318884dea9ae4d20e356db367508585858585604051808060200180602001806020018060200186815260200185810385528a818151815260200191508051906020019080838360005b83811015610b1f578181015183820152602001610b07565b50505050905090810190601f168015610b4c5780820380516001836020036101000a031916815260200191505b5085810384528951815289516020918201918b019080838360005b83811015610b7f578181015183820152602001610b67565b50505050905090810190601f168015610bac5780820380516001836020036101000a031916815260200191505b5085810383528851815288516020918201918a019080838360005b83811015610bdf578181015183820152602001610bc7565b50505050905090810190601f168015610c0c5780820380516001836020036101000a031916815260200191505b50858103825287518152875160209182019189019080838360005b83811015610c3f578181015183820152602001610c27565b50505050905090810190601f168015610c6c5780820380516001836020036101000a031916815260200191505b50995050505050505050505060405180910390a15050505050565b600260208181526000928352604092839020805484516001821615610100026000190190911693909304601f8101839004830284018301909452838352928391830182828015610d185780601f10610ced57610100808354040283529160200191610d18565b820191906000526020600020905b815481529060010190602001808311610cfb57829003601f168201915b505050505090806001018054600181600116156101000203166002900480601f016020809104026020016040519081016040528092919081815260200182805460018160011615610100020316600290048015610db65780601f10610d8b57610100808354040283529160200191610db6565b820191906000526020600020905b815481529060010190602001808311610d9957829003601f168201915b50505060028085018054604080516020601f6000196101006001871615020190941695909504928301859004850281018501909152818152959695945090925090830182828015610e485780601f10610e1d57610100808354040283529160200191610e48565b820191906000526020600020905b815481529060010190602001808311610e2b57829003601f168201915b5050505060038301805460408051602060026001851615610100026000190190941693909304601f8101849004840282018401909252818152949594935090830182828015610ed85780601f10610ead57610100808354040283529160200191610ed8565b820191906000526020600020905b815481529060010190602001808311610ebb57829003601f168201915b5050505050908060040154905085565b60015481565b60005481565b6040518060a0016040528060608152602001606081526020016060815260200160608152602001600081525090565b828054600181600116156101000203166002900490600052602060002090601f016020900481019282601f10610f6457805160ff1916838001178555610f91565b82800160010185558215610f91579182015b82811115610f91578251825591602001919060010190610f76565b50610f9d929150610fa1565b5090565b610fbb91905b80821115610f9d5760008155600101610fa7565b9056fea265627a7a72315820deb150d7dc0ccaf8227b6d44682c6fafe4b86b075e4a5d75074b0f4e16d6c6dd64736f6c63430005100032",
  "source": "pragma solidity >=0.4.21 <0.7.0;\n\ncontract VaccineDistribution {\n    uint public vaccineCount = 0;\n    uint public vaccinatedPeople = 0;\n\n    struct Vaccine {\n        string barcode;\n        string name;\n        string manufacturer;\n        string locale;\n        int temp;\n    }\n\n    mapping(uint => Vaccine) public vaccines;\n\n    event VaccineCreated(\n        string barcode,\n        string name,\n        string manufacturer,\n        string locale,\n        int temp\n    );\n\n    event VaccineReceived(\n        string barcode,\n        string name,\n        string vaccineLocation,\n        int temp\n    );\n    \n\n    constructor() public {\n        createVaccine(\"SFFFQJ93\", \"Covishield\", \"Serum Institute Of India\", \"Delhi, WA\", -10);\n        createVaccine(\"JDDFD334\", \"Covaxin\", \"Bharat Biotech\", \"Chennai, WA\", 0);\n        createVaccine(\"DFSFE238\", \"Sputnik\", \"Panacea Biotec\", \"Hyderabad, WA\", 5);\n    }\n\n    function createVaccine(string memory _barcode, string memory _name, string memory _manufacturer,\n    string memory _locale, int  _temp) public {\n        vaccineCount++;\n        vaccines[vaccineCount] = Vaccine(_barcode, _name, _manufacturer, _locale, _temp);\n        emit VaccineCreated(_barcode, _name, _manufacturer, _locale, _temp);\n    }\n\n    function receiveVaccine(uint _id, string memory _vaccineLocation, int _temp) public {\n        Vaccine memory _vaccine = vaccines[_id];\n        _vaccine.temp = _temp;\n        _vaccine.locale = _vaccineLocation;\n        vaccines[_id] = _vaccine;\n        vaccinatedPeople++;\n        emit VaccineReceived(_vaccine.barcode, _vaccine.name, _vaccineLocation, _temp);\n    }\n    function() external payable {}\n}",
  "sourcePath": "D:/Projects/Javascript/TODO Teamname's Vaccine Blockchain/contracts/VaccineDistribution.sol",
  "compiler": {
    "name": "solc",
    "version": "0.5.16+commit.9c3226ce.Emscripten.clang"
  },
  "schemaVersion": "3.4.0",
  "updatedAt": "2021-05-01T15:38:02.570Z",
  "networkType": "ethereum",
  "devdoc": {
    "methods": {}
  },
  "userdoc": {
    "methods": {}
  }
}