{
  "contractName": "VaccineDistribution",
  "abi": [
    {
      "inputs": [],
      "payable": false,
      "stateMutability": "nonpayable",
      "type": "constructor"
    },
    {
      "anonymous": false,
      "inputs": [
        {
          "indexed": false,
          "internalType": "string",
          "name": "name",
          "type": "string"
        },
        {
          "indexed": false,
          "internalType": "string",
          "name": "aadhar",
          "type": "string"
        },
        {
          "indexed": false,
          "internalType": "string",
          "name": "timestamp",
          "type": "string"
        }
      ],
      "name": "CertCreated",
      "type": "event"
    },
    {
      "anonymous": false,
      "inputs": [
        {
          "indexed": false,
          "internalType": "string",
          "name": "barcode",
          "type": "string"
        },
        {
          "indexed": false,
          "internalType": "string",
          "name": "name",
          "type": "string"
        },
        {
          "indexed": false,
          "internalType": "string",
          "name": "manufacturer",
          "type": "string"
        },
        {
          "indexed": false,
          "internalType": "string",
          "name": "locale",
          "type": "string"
        },
        {
          "indexed": false,
          "internalType": "int256",
          "name": "temp",
          "type": "int256"
        }
      ],
      "name": "VaccineCreated",
      "type": "event"
    },
    {
      "anonymous": false,
      "inputs": [
        {
          "indexed": false,
          "internalType": "string",
          "name": "barcode",
          "type": "string"
        },
        {
          "indexed": false,
          "internalType": "string",
          "name": "name",
          "type": "string"
        },
        {
          "indexed": false,
          "internalType": "string",
          "name": "vaccineLocation",
          "type": "string"
        },
        {
          "indexed": false,
          "internalType": "int256",
          "name": "temp",
          "type": "int256"
        }
      ],
      "name": "VaccineReceived",
      "type": "event"
    },
    {
      "payable": true,
      "stateMutability": "payable",
      "type": "fallback"
    },
    {
      "constant": true,
      "inputs": [],
      "name": "certCount",
      "outputs": [
        {
          "internalType": "uint256",
          "name": "",
          "type": "uint256"
        }
      ],
      "payable": false,
      "stateMutability": "view",
      "type": "function"
    },
    {
      "constant": true,
      "inputs": [
        {
          "internalType": "uint256",
          "name": "",
          "type": "uint256"
        }
      ],
      "name": "certs",
      "outputs": [
        {
          "internalType": "string",
          "name": "name",
          "type": "string"
        },
        {
          "internalType": "string",
          "name": "aadhar",
          "type": "string"
        },
        {
          "internalType": "string",
          "name": "timestamp",
          "type": "string"
        },
        {
          "internalType": "string",
          "name": "barcode",
          "type": "string"
        },
        {
          "internalType": "string",
          "name": "vacname",
          "type": "string"
        },
        {
          "internalType": "string",
          "name": "tx_hash",
          "type": "string"
        }
      ],
      "payable": false,
      "stateMutability": "view",
      "type": "function"
    },
    {
      "constant": true,
      "inputs": [],
      "name": "vaccineCount",
      "outputs": [
        {
          "internalType": "uint256",
          "name": "",
          "type": "uint256"
        }
      ],
      "payable": false,
      "stateMutability": "view",
      "type": "function"
    },
    {
      "constant": true,
      "inputs": [
        {
          "internalType": "uint256",
          "name": "",
          "type": "uint256"
        }
      ],
      "name": "vaccines",
      "outputs": [
        {
          "internalType": "string",
          "name": "barcode",
          "type": "string"
        },
        {
          "internalType": "string",
          "name": "name",
          "type": "string"
        },
        {
          "internalType": "string",
          "name": "manufacturer",
          "type": "string"
        },
        {
          "internalType": "string",
          "name": "locale",
          "type": "string"
        },
        {
          "internalType": "int256",
          "name": "temp",
          "type": "int256"
        }
      ],
      "payable": false,
      "stateMutability": "view",
      "type": "function"
    },
    {
      "constant": false,
      "inputs": [
        {
          "internalType": "string",
          "name": "_barcode",
          "type": "string"
        },
        {
          "internalType": "string",
          "name": "_name",
          "type": "string"
        },
        {
          "internalType": "string",
          "name": "_manufacturer",
          "type": "string"
        },
        {
          "internalType": "string",
          "name": "_locale",
          "type": "string"
        },
        {
          "internalType": "int256",
          "name": "_temp",
          "type": "int256"
        }
      ],
      "name": "createVaccine",
      "outputs": [],
      "payable": false,
      "stateMutability": "nonpayable",
      "type": "function"
    },
    {
      "constant": false,
      "inputs": [
        {
          "internalType": "uint256",
          "name": "_id",
          "type": "uint256"
        },
        {
          "internalType": "string",
          "name": "tx_hash",
          "type": "string"
        }
      ],
      "name": "addHash",
      "outputs": [],
      "payable": false,
      "stateMutability": "nonpayable",
      "type": "function"
    },
    {
      "constant": false,
      "inputs": [
        {
          "internalType": "uint256",
          "name": "_id",
          "type": "uint256"
        },
        {
          "internalType": "string",
          "name": "name",
          "type": "string"
        },
        {
          "internalType": "string",
          "name": "aadhar",
          "type": "string"
        },
        {
          "internalType": "string",
          "name": "timestamp",
          "type": "string"
        },
        {
          "internalType": "string",
          "name": "vacname",
          "type": "string"
        }
      ],
      "name": "receiveVaccine",
      "outputs": [],
      "payable": false,
      "stateMutability": "nonpayable",
      "type": "function"
    }
  ],
  "bytecode": "0x60806040526000805560006001553480156200001a57600080fd5b50620000ca6040518060400160405280600881526020016753464646514a393360c01b8152506040518060400160405280600a81526020016910dbdd9a5cda1a595b1960b21b8152506040518060400160405280601881526020017f536572756d20496e73746974757465204f6620496e64696100000000000000008152506040518060400160405280600981526020016844656c68692c20574160b81b8152506009196200020e60201b60201c565b620001686040518060400160405280600881526020016712911111910ccccd60c21b8152506040518060400160405280600781526020016621b7bb30bc34b760c91b8152506040518060400160405280600e81526020016d084d0c2e4c2e84084d2dee8cac6d60931b8152506040518060400160405280600b81526020016a4368656e6e61692c20574160a81b81525060006200020e60201b60201c565b62000208604051806040016040528060088152602001670888ca68c8a6466760c31b81525060405180604001604052806007815260200166537075746e696b60c81b8152506040518060400160405280600e81526020016d50616e616365612042696f74656360901b8152506040518060400160405280600d81526020016c4879646572616261642c20574160981b81525060056200020e60201b60201c565b62000554565b600080546001018082556040805160a081018252888152602080820189905281830188905260608201879052608082018690529284526002835292208251805191926200026192849290910190620004af565b5060208281015180516200027c9260018501920190620004af565b50604082015180516200029a916002840191602090910190620004af565b5060608201518051620002b8916003840191602090910190620004af565b50608082015181600401559050507f66607d108c079185600fab1416a7bee6a88f2318884dea9ae4d20e356db367508585858585604051808060200180602001806020018060200186815260200185810385528a818151815260200191508051906020019080838360005b838110156200033d57818101518382015260200162000323565b50505050905090810190601f1680156200036b5780820380516001836020036101000a031916815260200191505b5085810384528951815289516020918201918b019080838360005b83811015620003a057818101518382015260200162000386565b50505050905090810190601f168015620003ce5780820380516001836020036101000a031916815260200191505b5085810383528851815288516020918201918a019080838360005b8381101562000403578181015183820152602001620003e9565b50505050905090810190601f168015620004315780820380516001836020036101000a031916815260200191505b50858103825287518152875160209182019189019080838360005b83811015620004665781810151838201526020016200044c565b50505050905090810190601f168015620004945780820380516001836020036101000a031916815260200191505b50995050505050505050505060405180910390a15050505050565b828054600181600116156101000203166002900490600052602060002090601f016020900481019282601f10620004f257805160ff191683800117855562000522565b8280016001018555821562000522579182015b828111156200052257825182559160200191906001019062000505565b506200053092915062000534565b5090565b6200055191905b808211156200053057600081556001016200053b565b90565b611a9e80620005646000396000f3fe6080604052600436106100705760003560e01c8063cab36e921161004e578063cab36e921461072f578063d4e207a2146107e7578063dcb7b1b71461080e578063f9944ae21461082357610070565b80632b33fd9114610072578063300e88bd146102b4578063646750d61461048f575b005b34801561007e57600080fd5b50610070600480360360a081101561009557600080fd5b810190602081018135600160201b8111156100af57600080fd5b8201836020820111156100c157600080fd5b803590602001918460018302840111600160201b831117156100e257600080fd5b91908080601f0160208091040260200160405190810160405280939291908181526020018383808284376000920191909152509295949360208101935035915050600160201b81111561013457600080fd5b82018360208201111561014657600080fd5b803590602001918460018302840111600160201b8311171561016757600080fd5b91908080601f0160208091040260200160405190810160405280939291908181526020018383808284376000920191909152509295949360208101935035915050600160201b8111156101b957600080fd5b8201836020820111156101cb57600080fd5b803590602001918460018302840111600160201b831117156101ec57600080fd5b91908080601f0160208091040260200160405190810160405280939291908181526020018383808284376000920191909152509295949360208101935035915050600160201b81111561023e57600080fd5b82018360208201111561025057600080fd5b803590602001918460018302840111600160201b8311171561027157600080fd5b91908080601f0160208091040260200160405190810160405280939291908181526020018383808284376000920191909152509295505091359250610a6a915050565b3480156102c057600080fd5b506102de600480360360208110156102d757600080fd5b5035610cf7565b604051808060200180602001806020018060200186815260200185810385528a818151815260200191508051906020019080838360005b8381101561032d578181015183820152602001610315565b50505050905090810190601f16801561035a5780820380516001836020036101000a031916815260200191505b5085810384528951815289516020918201918b019080838360005b8381101561038d578181015183820152602001610375565b50505050905090810190601f1680156103ba5780820380516001836020036101000a031916815260200191505b5085810383528851815288516020918201918a019080838360005b838110156103ed5781810151838201526020016103d5565b50505050905090810190601f16801561041a5780820380516001836020036101000a031916815260200191505b50858103825287518152875160209182019189019080838360005b8381101561044d578181015183820152602001610435565b50505050905090810190601f16801561047a5780820380516001836020036101000a031916815260200191505b50995050505050505050505060405180910390f35b34801561049b57600080fd5b506104b9600480360360208110156104b257600080fd5b5035610f58565b6040518080602001806020018060200180602001806020018060200187810387528d818151815260200191508051906020019080838360005b8381101561050a5781810151838201526020016104f2565b50505050905090810190601f1680156105375780820380516001836020036101000a031916815260200191505b5087810386528c5181528c516020918201918e019080838360005b8381101561056a578181015183820152602001610552565b50505050905090810190601f1680156105975780820380516001836020036101000a031916815260200191505b5087810385528b5181528b516020918201918d019080838360005b838110156105ca5781810151838201526020016105b2565b50505050905090810190601f1680156105f75780820380516001836020036101000a031916815260200191505b5087810384528a5181528a516020918201918c019080838360005b8381101561062a578181015183820152602001610612565b50505050905090810190601f1680156106575780820380516001836020036101000a031916815260200191505b5087810383528951815289516020918201918b019080838360005b8381101561068a578181015183820152602001610672565b50505050905090810190601f1680156106b75780820380516001836020036101000a031916815260200191505b5087810382528851815288516020918201918a019080838360005b838110156106ea5781810151838201526020016106d2565b50505050905090810190601f1680156107175780820380516001836020036101000a031916815260200191505b509c5050505050505050505050505060405180910390f35b34801561073b57600080fd5b506100706004803603604081101561075257600080fd5b81359190810190604081016020820135600160201b81111561077357600080fd5b82018360208201111561078557600080fd5b803590602001918460018302840111600160201b831117156107a657600080fd5b91908080601f0160208091040260200160405190810160405280939291908181526020018383808284376000920191909152509295506112d9945050505050565b3480156107f357600080fd5b506107fc61173c565b60408051918252519081900360200190f35b34801561081a57600080fd5b506107fc611742565b34801561082f57600080fd5b50610070600480360360a081101561084657600080fd5b81359190810190604081016020820135600160201b81111561086757600080fd5b82018360208201111561087957600080fd5b803590602001918460018302840111600160201b8311171561089a57600080fd5b91908080601f0160208091040260200160405190810160405280939291908181526020018383808284376000920191909152509295949360208101935035915050600160201b8111156108ec57600080fd5b8201836020820111156108fe57600080fd5b803590602001918460018302840111600160201b8311171561091f57600080fd5b91908080601f0160208091040260200160405190810160405280939291908181526020018383808284376000920191909152509295949360208101935035915050600160201b81111561097157600080fd5b82018360208201111561098357600080fd5b803590602001918460018302840111600160201b831117156109a457600080fd5b91908080601f0160208091040260200160405190810160405280939291908181526020018383808284376000920191909152509295949360208101935035915050600160201b8111156109f657600080fd5b820183602082011115610a0857600080fd5b803590602001918460018302840111600160201b83111715610a2957600080fd5b91908080601f016020809104026020016040519081016040528093929190818152602001838380828437600092019190915250929550611748945050505050565b600080546001018082556040805160a08101825288815260208082018990528183018890526060820187905260808201869052928452600283529220825180519192610abb92849290910190611998565b506020828101518051610ad49260018501920190611998565b5060408201518051610af0916002840191602090910190611998565b5060608201518051610b0c916003840191602090910190611998565b50608082015181600401559050507f66607d108c079185600fab1416a7bee6a88f2318884dea9ae4d20e356db367508585858585604051808060200180602001806020018060200186815260200185810385528a818151815260200191508051906020019080838360005b83811015610b8f578181015183820152602001610b77565b50505050905090810190601f168015610bbc5780820380516001836020036101000a031916815260200191505b5085810384528951815289516020918201918b019080838360005b83811015610bef578181015183820152602001610bd7565b50505050905090810190601f168015610c1c5780820380516001836020036101000a031916815260200191505b5085810383528851815288516020918201918a019080838360005b83811015610c4f578181015183820152602001610c37565b50505050905090810190601f168015610c7c5780820380516001836020036101000a031916815260200191505b50858103825287518152875160209182019189019080838360005b83811015610caf578181015183820152602001610c97565b50505050905090810190601f168015610cdc5780820380516001836020036101000a031916815260200191505b50995050505050505050505060405180910390a15050505050565b600260208181526000928352604092839020805484516001821615610100026000190190911693909304601f8101839004830284018301909452838352928391830182828015610d885780601f10610d5d57610100808354040283529160200191610d88565b820191906000526020600020905b815481529060010190602001808311610d6b57829003601f168201915b505050505090806001018054600181600116156101000203166002900480601f016020809104026020016040519081016040528092919081815260200182805460018160011615610100020316600290048015610e265780601f10610dfb57610100808354040283529160200191610e26565b820191906000526020600020905b815481529060010190602001808311610e0957829003601f168201915b50505060028085018054604080516020601f6000196101006001871615020190941695909504928301859004850281018501909152818152959695945090925090830182828015610eb85780601f10610e8d57610100808354040283529160200191610eb8565b820191906000526020600020905b815481529060010190602001808311610e9b57829003601f168201915b5050505060038301805460408051602060026001851615610100026000190190941693909304601f8101849004840282018401909252818152949594935090830182828015610f485780601f10610f1d57610100808354040283529160200191610f48565b820191906000526020600020905b815481529060010190602001808311610f2b57829003601f168201915b5050505050908060040154905085565b60036020908152600091825260409182902080548351601f60026000196101006001861615020190931692909204918201849004840281018401909452808452909291839190830182828015610fef5780601f10610fc457610100808354040283529160200191610fef565b820191906000526020600020905b815481529060010190602001808311610fd257829003601f168201915b505050505090806001018054600181600116156101000203166002900480601f01602080910402602001604051908101604052809291908181526020018280546001816001161561010002031660029004801561108d5780601f106110625761010080835404028352916020019161108d565b820191906000526020600020905b81548152906001019060200180831161107057829003601f168201915b50505060028085018054604080516020601f600019610100600187161502019094169590950492830185900485028101850190915281815295969594509092509083018282801561111f5780601f106110f45761010080835404028352916020019161111f565b820191906000526020600020905b81548152906001019060200180831161110257829003601f168201915b5050505060038301805460408051602060026001851615610100026000190190941693909304601f81018490048402820184019092528181529495949350908301828280156111af5780601f10611184576101008083540402835291602001916111af565b820191906000526020600020905b81548152906001019060200180831161119257829003601f168201915b5050505060048301805460408051602060026001851615610100026000190190941693909304601f810184900484028201840190925281815294959493509083018282801561123f5780601f106112145761010080835404028352916020019161123f565b820191906000526020600020905b81548152906001019060200180831161122257829003601f168201915b5050505060058301805460408051602060026001851615610100026000190190941693909304601f81018490048402820184019092528181529495949350908301828280156112cf5780601f106112a4576101008083540402835291602001916112cf565b820191906000526020600020905b8154815290600101906020018083116112b257829003601f168201915b5050505050905086565b6112e1611a16565b6000838152600360209081526040918290208251815460026001821615610100026000190190911604601f8101849004909302810160e090810190945260c0810183815290939192849284919084018282801561137f5780601f106113545761010080835404028352916020019161137f565b820191906000526020600020905b81548152906001019060200180831161136257829003601f168201915b50505050508152602001600182018054600181600116156101000203166002900480601f0160208091040260200160405190810160405280929190818152602001828054600181600116156101000203166002900480156114215780601f106113f657610100808354040283529160200191611421565b820191906000526020600020905b81548152906001019060200180831161140457829003601f168201915b5050509183525050600282810180546040805160206001841615610100026000190190931694909404601f810183900483028501830190915280845293810193908301828280156114b35780601f10611488576101008083540402835291602001916114b3565b820191906000526020600020905b81548152906001019060200180831161149657829003601f168201915b505050918352505060038201805460408051602060026001851615610100026000190190941693909304601f81018490048402820184019092528181529382019392918301828280156115475780601f1061151c57610100808354040283529160200191611547565b820191906000526020600020905b81548152906001019060200180831161152a57829003601f168201915b505050918352505060048201805460408051602060026001851615610100026000190190941693909304601f81018490048402820184019092528181529382019392918301828280156115db5780601f106115b0576101008083540402835291602001916115db565b820191906000526020600020905b8154815290600101906020018083116115be57829003601f168201915b505050918352505060058201805460408051602060026001851615610100026000190190941693909304601f810184900484028201840190925281815293820193929183018282801561166f5780601f106116445761010080835404028352916020019161166f565b820191906000526020600020905b81548152906001019060200180831161165257829003601f168201915b5050509190925250505060a08101839052600084815260036020908152604090912082518051939450849391926116ab92849290910190611998565b5060208281015180516116c49260018501920190611998565b50604082015180516116e0916002840191602090910190611998565b50606082015180516116fc916003840191602090910190611998565b5060808201518051611718916004840191602090910190611998565b5060a08201518051611734916005840191602090910190611998565b505050505050565b60015481565b60005481565b611750611a16565b8481526020808201859052604080830185905260808301849052600180548101905560008881526003835220825180518493611790928492910190611998565b5060208281015180516117a99260018501920190611998565b50604082015180516117c5916002840191602090910190611998565b50606082015180516117e1916003840191602090910190611998565b50608082015180516117fd916004840191602090910190611998565b5060a08201518051611819916005840191602090910190611998565b509050507fc73d12327f023ab901ecfb487ac3ae704d1a643eff9ef73b462908e2a429937381600001518260200151836040015160405180806020018060200180602001848103845287818151815260200191508051906020019080838360005b8381101561189257818101518382015260200161187a565b50505050905090810190601f1680156118bf5780820380516001836020036101000a031916815260200191505b50848103835286518152865160209182019188019080838360005b838110156118f25781810151838201526020016118da565b50505050905090810190601f16801561191f5780820380516001836020036101000a031916815260200191505b50848103825285518152855160209182019187019080838360005b8381101561195257818101518382015260200161193a565b50505050905090810190601f16801561197f5780820380516001836020036101000a031916815260200191505b50965050505050505060405180910390a1505050505050565b828054600181600116156101000203166002900490600052602060002090601f016020900481019282601f106119d957805160ff1916838001178555611a06565b82800160010185558215611a06579182015b82811115611a065782518255916020019190600101906119eb565b50611a12929150611a4c565b5090565b6040518060c001604052806060815260200160608152602001606081526020016060815260200160608152602001606081525090565b611a6691905b80821115611a125760008155600101611a52565b9056fea265627a7a723158200c77d4e685222e60429f33a1298ba13261307b7a8f4d00afa323524cf8d991df64736f6c63430005100032",
  "source": "pragma solidity >=0.4.21 <0.7.0;\n\ncontract VaccineDistribution {\n    uint public vaccineCount = 0;\n    uint public certCount = 0;\n\n    struct Vaccine {\n        string barcode;\n        string name;\n        string manufacturer;\n        string locale;\n        int temp;\n    }\n    struct Cert {\n        string name;\n        string aadhar;\n        string timestamp;\n        string barcode;\n        string vacname;\n        string tx_hash;\n    }\n\n    mapping(uint => Vaccine) public vaccines;\n    mapping(uint => Cert) public certs;\n\n    event CertCreated (\n        string name,\n        string aadhar,\n        string timestamp\n    );\n\n    event VaccineCreated(\n        string barcode,\n        string name,\n        string manufacturer,\n        string locale,\n        int temp\n    );\n\n    event VaccineReceived(\n        string barcode,\n        string name,\n        string vaccineLocation,\n        int temp\n    );\n    \n\n    constructor() public {\n        createVaccine(\"SFFFQJ93\", \"Covishield\", \"Serum Institute Of India\", \"Delhi, WA\", -10);\n        createVaccine(\"JDDFD334\", \"Covaxin\", \"Bharat Biotech\", \"Chennai, WA\", 0);\n        createVaccine(\"DFSFE238\", \"Sputnik\", \"Panacea Biotec\", \"Hyderabad, WA\", 5);\n        //receiveVaccine(1, \"Kinshuk\", \"12345678\", \"12122134241\", \"Covishield\");\n\n        //receiveVaccine(2, \"Test\", \"123232141342\", \"9999999999\", \"Covaxin\");\n    }\n\n    function createVaccine(string memory _barcode, string memory _name, string memory _manufacturer,\n    string memory _locale, int  _temp) public {\n        vaccineCount++;\n        vaccines[vaccineCount] = Vaccine(_barcode, _name, _manufacturer, _locale, _temp);\n        emit VaccineCreated(_barcode, _name, _manufacturer, _locale, _temp);\n    }\n\n    function addHash(uint _id, string memory tx_hash) public {\n        Cert memory _cert = certs[_id];\n        _cert.tx_hash = tx_hash;\n        certs[_id] = _cert;\n    }\n\n    function receiveVaccine(uint _id, string memory name, string memory aadhar, string memory timestamp, string memory vacname) public {\n        Cert memory _cert;\n        _cert.name = name;\n        _cert.aadhar = aadhar;\n        _cert.timestamp = timestamp;\n        _cert.vacname = vacname;\n        certCount++;\n        certs[_id] = _cert;\n        emit CertCreated(_cert.name, _cert.aadhar, _cert.timestamp);\n    }\n    function() external payable {}\n}",
  "sourcePath": "D:/Projects/Javascript/TODO Teamname's Vaccine Blockchain/contracts/VaccineDistribution.sol",
  "compiler": {
    "name": "solc",
    "version": "0.5.16+commit.9c3226ce.Emscripten.clang"
  },
  "schemaVersion": "3.4.0",
  "updatedAt": "2021-05-01T21:11:04.631Z",
  "networkType": "ethereum",
  "devdoc": {
    "methods": {}
  },
  "userdoc": {
    "methods": {}
  }
}